:020000040000FA
:100000000A128A11FC2F00308A000408840A820731
:10001000003442344134483455344C3445344B3444
:10002000413452340034503441344C344C34413433
:060030005634493400348F
:100D9E00F800E12E780884000A128A1103200A1244
:100DAE008A110A128A1171270A128A110130F7006C
:100DBE007708F807780884000A128A1103200A12AD
:100DCE008A11003A031DEC2EED2ED12E0800413073
:100DDE00F800EE30F700F70BF22EF80BF22E0000B3
:100DEE0028300A128A1139270A128A110C300A1277
:100DFE008A1139270A128A1106300A128A113927E6
:100E0E000A128A1101300A128A1139270A128A111E
:100E1E00080083160313071087100F30F9007908A6
:100E2E0088050A128A11EE260A128A11C0300A1299
:100E3E008A1139270A128A110B300A128A11CF260B
:100E4E000A128A1180300A128A1139270A128A115F
:100E5E0001300A128A11CF260A128A11352F0A1270
:100E6E008A110028F6007608F40004300310F40C02
:100E7E00FF3E031D3D2F74080F390A128A11A92750
:100E8E000A128A1183120313071087144130F500DA
:100E9E00EE30F400F40B512FF50B512F000083129E
:100EAE000313871076080F390A128A11A9270A121E
:100EBE008A1183120313071087144130F500EE30A8
:100ECE00F400F40B682FF50B682F00008312031348
:100EDE0087100800F6007608F40004300310F40CB6
:100EEE00FF3E031D752F74080F390A128A11A927A8
:100EFE000A128A1183120313071487144130F50066
:100F0E00EE30F400F40B892FF50B892F00008312BD
:100F1E000313871076080F390A128A11A9270A12AD
:100F2E008A1183120313071487144130F500EE3033
:100F3E00F400F40BA02FF50BA02F00008312031367
:100F4E0087100800F3000F30F000700883120313AF
:100F5E00880573080139F00003300310F00DFF3ED1
:100F6E00031DB42F0310700DF1007108880473086F
:100F7E00F0000310700C0139F10004300310F10D74
:100F8E00FF3E031DC52F0310710DF2007208880479
:100F9E007308F00002300310F00CFF3E031DD22F39
:100FAE0070080139F10005300310F10DFF3E031DED
:100FBE00DB2F0310710DF200720888047308F00025
:100FCE0003300310F00CFF3E031DE82F70080139AB
:100FDE00F10006300310F10DFF3E031DF12F03103B
:100FEE00710DF20072088804080083010A128A113A
:020FFE00102FB2
:02400E003A3F37
:00000001FF
